:020000040000FA
:100000000C945D000C9485000C9485000C94850084
:100010000C9485000C9485000C9485000C9485004C
:100020000C9485000C9485000C9485000C9485003C
:100030000C9485000C9485000C9485000C9485002C
:100040000C94A2030C9485000C9470030C944A0346
:100050000C9485000C9485000C9485000C9485000C
:100060000C94EC030C9485000000000800020100D1
:100070000003040700000000000000000000000072
:10008000250028002B0000000000240027002A0083
:10009000040404040404040402020202020203032E
:1000A0000303030301020408102040800102040836
:1000B00010200102040810200B0511241FBECFEFF1
:1000C000D8E0DEBFCDBF11E0A0E0B1E0ECEFFDE095
:1000D00002C005900D92A235B107D9F722E0A2E542
:1000E000B1E001C01D92A03AB207E1F710E0CDE502
:1000F000D0E004C02197FE010E94F606CC35D1075E
:10010000C9F70E9444050C94FC060C94000090E092
:10011000FC01EC55FF4F249180579F4FFC018491C7
:10012000882399F090E0880F991FFC01EA57FF4F50
:10013000A591B491FC01E458FF4F859194918FB73C
:10014000F894EC91E22BEC938FBF08950895CF9330
:10015000DF93AC01E091F301F091F4013097F1F0FD
:100160009091F2018091F1019817C0F090E0292F51
:1001700030E02617370754F4D901AE5ABE4F240F8A
:10018000351FE90128812C939F5FF1CF1092F20176
:100190006093F101CB01DF91CF910994DF91CF9171
:1001A0000895AF92BF92CF92DF92EF92FF920F939A
:1001B0001F93CF93DF936C017B018B01040F151FFD
:1001C000EB015E01AE18BF08C017D10759F0699165
:1001D000D601ED91FC910190F081E02DC6010995C9
:1001E000892B79F7C501DF91CF911F910F91FF9076
:1001F000EF90DF90CF90BF90AF900895FC01538DAA
:10020000448D252F30E0842F90E0821B930B5417F0
:1002100010F0CF96089501970895FC01918D828D7D
:10022000981761F0A28DAE0FBF2FB11D5D968C9116
:10023000928D9F5F9F73928F90E008958FEF9FEF55
:100240000895FC01918D828D981731F0828DE80F11
:10025000F11D858D90E008958FEF9FEF0895FC01CB
:10026000918D228D892F90E0805C9F4F821B910998
:100270008F739927089587EF91E00E942F0121E065
:10028000892B09F420E0822F089580E090E0892BEB
:1002900029F00E943B0181110C9400000895FC019B
:1002A000A48DA80FB92FB11DA35ABF4F2C91848DD7
:1002B00090E001968F739927848FA689B7892C9334
:1002C000A089B1898C91837080648C93938D848D87
:1002D000981306C00288F389E02D80818F7D80838A
:1002E0000895EF92FF920F931F93CF93DF93EC014A
:1002F00081E0888F9B8D8C8D98131AC0E889F989CD
:10030000808185FF15C09FB7F894EE89FF896083CF
:10031000E889F98980818370806480839FBF81E050
:1003200090E0DF91CF911F910F91FF90EF90089592
:10033000F62E0B8D10E00F5F1F4F0F731127E02E6D
:100340008C8D8E110CC00FB607FCFACFE889F989A5
:10035000808185FFF5CFCE010E944F01F1CFEB8D5B
:10036000EC0FFD2FF11DE35AFF4FF0829FB7F89479
:100370000B8FEA89FB8980818062CFCFCF93DF9397
:10038000EC01888D8823B9F0AA89BB89E889F989AD
:100390008C9185FD03C0808186FD0DC00FB607FCE2
:1003A000F7CF8C9185FFF2CF808185FFEDCFCE0115
:1003B0000E944F01E9CFDF91CF91089590E0FC01B9
:1003C000E859FF4F2491FC01EC55FF4F3491FC019B
:1003D000E057FF4FE491EE23C9F0222339F0233098
:1003E00001F1A8F4213019F1223029F1F0E0EE0FEB
:1003F000FF1FE458FF4FA591B4918FB7F894EC918B
:10040000611126C030953E233C938FBF089527305D
:10041000A9F02830C9F0243049F7809180008F7D01
:1004200003C0809180008F7780938000DFCF84B5F8
:100430008F7784BDDBCF84B58F7DFBCF8091B000FB
:100440008F778093B000D2CF8091B0008F7DF9CFAD
:100450003E2BDACF3FB7F8948091E7019091E80105
:10046000A091E901B091EA0126B5A89B05C02F3FF4
:1004700019F00196A11DB11D3FBFBA2FA92F982FCA
:100480008827BC01CD01620F711D811D911D42E0C5
:10049000660F771F881F991F4A95D1F708952091FD
:1004A0009801260F3327331F21323105ECF42091B8
:1004B000BC01FC0190E080E0243069F082E0089506
:1004C000A09198012191AC0148585E4FA40FB52F1F
:1004D000B11D2C930196861798F380919801680FAF
:1004E0006093980180E0089581E008951092BC0126
:1004F00081E08093BE011092BD0161E082E10E9423
:10050000DE0161E083E10E94DE01E9EBF0E0808141
:100510008E7F808380818D7F808388E48093B80084
:1005200085E48093BC0008950895E091F2018091E4
:10053000F101E81730F4F0E0EE5AFE4F808190E0D0
:1005400008958FEF9FEF08959091F2018091F1014E
:100550002FEF3FEF981748F4E92FF0E0EE5AFE4FE7
:10056000208130E09F5F9093F201C901089584E9F2
:1005700092E00E94A4029093F6018093F501089501
:100580008091F1019091F201891B990B0895CF930D
:10059000DF93CB01EA01642F0E944F02CE01DF916D
:1005A000CF910895CF93DF931F92CDB7DEB76983C4
:1005B00061E0CE0101960E944F0281E090E00F9031
:1005C000DF91CF91089590E080E00895FC010190C3
:1005D0000020E9F73197AF01481B590BBC0187EFA9
:1005E00091E00C94D100CF93DF9385ED8093BC0014
:1005F0008091740190917501A0917601B09177017D
:100600000796A11DB11D23E0B695A79597958795EF
:100610002A95D1F72091BC0024FD03C01092BC01A3
:1006200036C04091740150917501609176017091CE
:100630007701452B462B472B69F30097A105B105A0
:1006400041F025E32A95F1F700000197A109B109CE
:10065000E1CF8091730191E0909372018823B9F00A
:10066000C091B800D091BA008091BC008A7B809381
:10067000BC0060E082E10E94DE0160E083E10E9454
:10068000DE010E947602D093BA00C093B800DF91D9
:10069000CF9108951F920F920FB60F9211242F93AE
:1006A0003F934F935F936F937F938F939F93AF93FA
:1006B000BF93EF93FF9387EF91E00E944F01FF916B
:1006C000EF91BF91AF919F918F917F916F915F91CA
:1006D0004F913F912F910F900FBE0F901F90189543
:1006E0001F920F920FB60F9211242F938F939F9307
:1006F000EF93FF93E0910702F09108028081E0916F
:100700000D02F0910E0282FD1BC0908180911002BB
:100710008F5F8F7320911102821741F0E0911002D8
:10072000F0E0E950FE4F958F80931002FF91EF911A
:100730009F918F912F910F900FBE0F901F90189542
:100740008081F4CF1F920F920FB60F9211242F9336
:100750003F938F939F93AF93BF938091E3019091C9
:10076000E401A091E501B091E6013091E20123E0BE
:10077000230F2D3758F50196A11DB11D2093E201DD
:100780008093E3019093E401A093E501B093E60127
:100790008091E7019091E801A091E901B091EA010F
:1007A0000196A11DB11D8093E7019093E801A093EC
:1007B000E901B093EA01BF91AF919F918F913F9171
:1007C0002F910F900FBE0F901F90189526E8230FC2
:1007D0000296A11DB11DD2CF1F920F920FB60F929C
:1007E00011242F933F934F935F936F937F938F9336
:1007F0009F93AF93BF93EF93FF938091B900887F4E
:10080000803609F44AC0F0F5883209F4A7C018F51B
:10081000803109F49BC0B8F4882309F4F9C088300A
:1008200009F494C0FF91EF91BF91AF919F918F9187
:100830007F916F915F914F913F912F910F900FBEDC
:100840000F901F901895883109F488C0803251F7B5
:100850008093BB0114C0803409F49DC040F4803300
:10086000B9F38833F9F68093BB0185ECB0C08035CD
:1008700009F485C0883509F496C0883499F60E9439
:10088000F302D0CF883909F48CC038F5883729F0C5
:1008900050F4883611F0803729F683E08093BC014C
:1008A0001092BA0157C0883809F47BC0803919F01A
:1008B000803809F0B7CF8091BA01803208F071C05A
:1008C000E091BA0181E08E0F8093BA018091BB0064
:1008D000F0E0E656FE4F80833DC0803B39F0E0F407
:1008E000803A09F479C0883A09F09CCF84E080937B
:1008F000BC011092990110929801E091ED01F091E4
:10090000EE0109958091980181110FC081E08093DB
:1009100098011092780109C0803C09F4A6CF883C68
:1009200009F4A3CF883B09F07DCFE091990181E0E4
:100930008E0F80939901F0E0E858FE4F80818093FC
:10094000BB00909199018091980129C08091E101AB
:100950008093BB0085EC8093BC0064CF9091E00154
:100960008091DF01981758F5E091E00181E08E0F4A
:100970008093E001F0E0E154FE4F8081E9CFE09107
:10098000E00181E08E0F8093E0018091BB00F0E0F8
:10099000E154FE4F80839091E0018091DF01981730
:1009A000C8F285E8D8CFE091E00181E08E0F809316
:1009B000E0018091BB00F0E0E154FE4F8083809124
:1009C000BE0181115CCF81E08093BD0184EA8093F8
:1009D000BC001092BC0126CF85EC8093BC00109225
:1009E000BC018091BA01803230F4E091BA01F0E0AC
:1009F000E656FE4F10826091BA0170E0E091EB0183
:100A0000F091EC018AE991E009951092BA010ACFC0
:100A10001092BB0134CFE7EFF1E01382128288EE2F
:100A200093E0A0E0B0E084839583A683B78324E0BD
:100A300031E03183208325EC30E03587248724ECB6
:100A400030E03787268720EC30E0318B208B21EC9B
:100A500030E0338B228B22EC30E0358B248B26EC7C
:100A600030E0378B268B118E128E138E148EE4E9B4
:100A7000F2E01382128284839583A683B78386E192
:100A800091E0918380830895CF93DF93CDB7DEB754
:100A9000A1970FB6F894DEBF0FBECDBF789484B592
:100AA000826084BD84B5816084BD85B5826085BD6A
:100AB00085B5816085BD80916E00816080936E00F8
:100AC00010928100809181008260809381008091EA
:100AD000810081608093810080918000816080939B
:100AE00080008091B10084608093B1008091B0005B
:100AF00081608093B00080917A00846080937A0056
:100B000080917A00826080937A0080917A0081607F
:100B100080937A0080917A00806880937A001092A6
:100B2000C1008AE00E94870089E00E94870088E077
:100B30000E9487001092F2011092F1011092F001D0
:100B40001092EF010E94760286EA90E09093EE0107
:100B50008093ED0187EA90E09093EC018093EB01A4
:100B600088E18093BA0087EB92E09093F401809340
:100B7000F301E0910702F091080282E08083E091A6
:100B80000302F09104021082E0910502F091060246
:100B90008FEC808310920F02E0910B02F0910C0217
:100BA00086E08083E0910902F0910A0280818061F1
:100BB0008083E0910902F0910A028081886080833D
:100BC000E0910902F0910A02808180688083E091BF
:100BD0000902F0910A0280818F7D808384E291E096
:100BE0000E94E60284E391E00E94E6029AE0892EE8
:100BF000912CA12CB12C00E010E087E391E00E9441
:100C0000E602C090F501D090F6010D2C000CEE0824
:100C1000FF08F7FE54C06DE287EF91E00E9471017A
:100C200022273327A9012C193D094E095F0919A272
:100C3000CE0181967C01CA01B901A50194010E94EF
:100C4000D406605DF70162937F01211531054105EE
:100C5000510589F7E114F10419F0C7010E94E60279
:100C60008BE491E00E94E60284E391E00E94E602B8
:100C700084E391E00E94E602E090F501F090F60135
:100C8000F5E0EF16F1048CF56FEF8AE00E94DE01CB
:100C900060E089E00E94DE0160E088E00E94DE0101
:100CA00097E0E916F10409F070C062E38AE00E945F
:100CB000DE0160E089E00E94DE0168EC23C0A7014C
:100CC000960119A2CE0181967C01CA01B901A50144
:100CD00094010E94D406605DF70162937F012115A3
:100CE00031054105510589F7B5CF25E0E216F1043C
:100CF000E9F566E98AE00E94DE0160E089E00E9491
:100D0000DE0164E688E00E94DE010E942A026B0197
:100D10007C0188EE482E83E0582E612C712C0E94B5
:100D20002A026C197D098E099F09683E734081056E
:100D30009105A8F3F1E04F1A51086108710828EEF7
:100D4000C20E23E0D21EE11CF11C411451046104C7
:100D5000710429F70115110509F44FCF0E943B01D9
:100D6000882309F44ACF0E94000047CF86E0E816A6
:100D7000F10409F095CF64E68AE00E94DE0160E0AC
:100D800089E00E94DE0164EBBDCFE8E0EE16F104DD
:100D90000CF4BBCF60E08AE00E94DE0160E089E0F5
:100DA0000E94DE016FEFAECFA1E21A2EAA1BBB1B81
:100DB000FD010DC0AA1FBB1FEE1FFF1FA217B30727
:100DC000E407F50720F0A21BB30BE40BF50B661F3D
:100DD000771F881F991F1A9469F760957095809501
:100DE00090959B01AC01BD01CF010895EE0FFF1F4F
:100DF0000590F491E02D0994F894FFCF00000000D5
:100E00007101D100FE00BE012F010D012101000082
:100E10000000D202C702E3029402C002A4029502BB
:100E2000536C61766520322052656164696E67009B
:100E30000D0A0044697374616E63652052656365D1
:0E0E4000697665643A2000204D657465720085
:107E0000112484B714BE81FFF0D085E080938100F7
:107E100082E08093C00088E18093C10086E0809377
:107E2000C20080E18093C4008EE0C9D0259A86E02C
:107E300020E33CEF91E0309385002093840096BBD3
:107E4000B09BFECF1D9AA8958150A9F7CC24DD24C4
:107E500088248394B5E0AB2EA1E19A2EF3E0BF2EE7
:107E6000A2D0813461F49FD0082FAFD0023811F036
:107E7000013811F484E001C083E08DD089C08234E0
:107E800011F484E103C0853419F485E0A6D080C0E4
:107E9000853579F488D0E82EFF2485D0082F10E0AE
:107EA000102F00270E291F29000F111F8ED06801E7
:107EB0006FC0863521F484E090D080E0DECF843638
:107EC00009F040C070D06FD0082F6DD080E0C81688
:107ED00080E7D80618F4F601B7BEE895C0E0D1E017
:107EE00062D089930C17E1F7F0E0CF16F0E7DF06D8
:107EF00018F0F601B7BEE89568D007B600FCFDCFD4
:107F0000A601A0E0B1E02C9130E011968C91119780
:107F100090E0982F8827822B932B1296FA010C0160
:107F200087BEE89511244E5F5F4FF1E0A038BF0790
:107F300051F7F601A7BEE89507B600FCFDCF97BE46
:107F4000E89526C08437B1F42ED02DD0F82E2BD052
:107F50003CD0F601EF2C8F010F5F1F4F84911BD097
:107F6000EA94F801C1F70894C11CD11CFA94CF0C13
:107F7000D11C0EC0853739F428D08EE10CD085E9AC
:107F80000AD08FE07ACF813511F488E018D01DD067
:107F900080E101D065CF982F8091C00085FFFCCF94
:107FA0009093C60008958091C00087FFFCCF809118
:107FB000C00084FD01C0A8958091C6000895E0E648
:107FC000F0E098E1908380830895EDDF803219F02E
:107FD00088E0F5DFFFCF84E1DECF1F93182FE3DFCA
:107FE0001150E9F7F2DF1F91089580E0E8DFEE27F6
:047FF000FF270994CA
:027FFE00040479
:00000001FF
