:020000040000FA
:100000000C9462000C948A000C948A000C948A0070
:100010000C948A000C948A000C948A000C948A0038
:100020000C948A000C948A000C948A000C940905A4
:100030000C948A000C948A000C948A000C948A0018
:100040000C94BF040C948A000C948D040C946704E7
:100050000C948A000C948A000C948A000C948A00F8
:100060000C947B050C948A000000000024002700FB
:100070002A0000000000250028002B0000000000DE
:1000800023002600290004040404040404040202DA
:100090000202020203030303030301020408102007
:1000A0004080010204081020010204081020000012
:1000B0000008000201000003040700000000000027
:1000C00000009A0611241FBECFEFD8E0DEBFCDBFDF
:1000D00012E0A0E0B1E0E4E5F1E102C005900D928C
:1000E000AE31B107D9F723E0AEE1B2E001C01D9215
:1000F000A837B207E1F710E0C2E6D0E004C02197CC
:10010000FE010E94A208C136D107C9F70E94D3069A
:100110000C94A8080C9400000895CF93DF93AC01D1
:10012000E091CB02F091CC023097F1F09091CA02AD
:100130008091C9029817C0F090E0292F30E026176F
:10014000370754F4D901AF5DBD4F240F351FE901C6
:1001500028812C939F5FF1CF1092CA026093C9024D
:10016000CB01DF91CF910994DF91CF910895AF92A8
:10017000BF92CF92DF92EF92FF920F931F93CF9394
:10018000DF936C017B018B01040F151FEB015E01F6
:10019000AE18BF08C017D10759F06991D601ED918B
:1001A000FC910190F081E02DC6010995892B79F72A
:1001B000C501DF91CF911F910F91FF90EF90DF90DC
:1001C000CF90BF90AF900895FC01538D448D252FA3
:1001D00030E0842F90E0821B930B541710F0CF96E1
:1001E000089501970895FC01918D828D981761F013
:1001F000A28DAE0FBF2FB11D5D968C91928D9F5F2A
:100200009F73928F90E008958FEF9FEF0895FC0108
:10021000918D828D981731F0828DE80FF11D858DBB
:1002200090E008958FEF9FEF0895FC01918D228D4E
:10023000892F90E0805C9F4F821B91098F739927D3
:1002400008958FEC92E00E94150121E0892B09F4BA
:1002500020E0822F089580E090E0892B29F00E9411
:10026000210181110C9400000895FC01A48DA80FB8
:10027000B92FB11DA35ABF4F2C91848D90E00196E8
:100280008F739927848FA689B7892C93A089B18908
:100290008C91837080648C93938D848D981306C0A9
:1002A0000288F389E02D80818F7D80830895EF920D
:1002B000FF920F931F93CF93DF93EC0181E0888F20
:1002C0009B8D8C8D98131AC0E889F989808185FFF0
:1002D00015C09FB7F894EE89FF896083E889F98992
:1002E00080818370806480839FBF81E090E0DF9194
:1002F000CF911F910F91FF90EF900895F62E0B8DE7
:1003000010E00F5F1F4F0F731127E02E8C8D8E11A1
:100310000CC00FB607FCFACFE889F989808185FF08
:10032000F5CFCE010E943501F1CFEB8DEC0FFD2F03
:10033000F11DE35AFF4FF0829FB7F8940B8FEA89C3
:10034000FB8980818062CFCFCF93DF93EC01888DD2
:100350008823B9F0AA89BB89E889F9898C9185FD40
:1003600003C0808186FD0DC00FB607FCF7CF8C91CE
:1003700085FFF2CF808185FFEDCFCE010E94350150
:10038000E9CFDF91CF910895833081F028F4813057
:1003900099F08230A9F008958730A9F08830C9F02B
:1003A0008430B1F4809180008F7D03C08091800003
:1003B0008F7780938000089584B58F7784BD0895EA
:1003C00084B58F7DFBCF8091B0008F778093B00094
:1003D00008958091B0008F7DF9CFCF93DF93282FC0
:1003E00030E0F901E255FF4F8491F901E656FF4FE5
:1003F000D491F901EA57FF4FC491CC23A1F08111A8
:100400000E94C401EC2FF0E0EE0FFF1FE458FF4FF5
:10041000A591B491EC91ED2381E090E009F480E0A6
:10042000DF91CF91089580E090E0FACF1F93CF93B2
:10043000DF93282F30E0F901E255FF4F8491F90155
:10044000E656FF4FD491F901EA57FF4FC491CC23F0
:10045000A9F0162F81110E94C401EC2FF0E0EE0FDD
:10046000FF1FEE58FF4FA591B4918FB7F894EC9110
:10047000111108C0D095DE23DC938FBFDF91CF919F
:100480001F910895DE2BF8CFCF93DF9390E0FC010E
:10049000E656FF4F24918A579F4FFC018491882391
:1004A000D1F090E0880F991FFC01E859FF4FA5910A
:1004B000B491FC01EE58FF4FC591D49161110EC06B
:1004C0009FB7F8948C91E22FE0958E238C9328812E
:1004D000E223E8839FBFDF91CF9108958FB7F8940F
:1004E000EC91E22BEC938FBFF6CF3FB7F89480915D
:1004F000BF029091C002A091C102B091C20226B584
:10050000A89B05C02F3F19F00196A11DB11D3FBF4B
:10051000BA2FA92F982F8827BC01CD01620F711D1A
:10052000811D911D42E0660F771F881F991F4A9514
:10053000D1F708958F929F92AF92BF92CF92DF92A0
:10054000EF92FF924B015C010E9475026B017C01EE
:100550000E9475026C197D098E099F09683E7340DF
:1005600081059105A8F321E0821A9108A108B1083C
:1005700088EEC80E83E0D81EE11CF11C81149104A2
:10058000A104B10429F7FF90EF90DF90CF90BF90C6
:10059000AF909F908F9008958627082E8295807F38
:1005A0008025092E982F82958F700826869598278A
:1005B0008927880F880F880F80250895209167026A
:1005C000260F3327331F21323105ECF420918B02A3
:1005D000FC0190E080E0243069F082E00895A09171
:1005E00067022191AC01495B5D4FA40FB52FB11D8E
:1005F0002C930196861798F380916702680F609399
:10060000670280E0089581E0089510928B0281E0F6
:1006100080938D0210928C0261E082E10E941602AA
:1006200061E083E10E941602E9EBF0E080818E7FB9
:10063000808380818D7F808388E48093B80085E407
:100640008093BC0008950895E091CA028091C90288
:10065000E81730F4F0E0EF5DFD4F808190E0089501
:100660008FEF9FEF08959091CA028091C9022FEFFA
:100670003FEF981748F4E92FF0E0EF5DFD4F208140
:1006800030E09F5F9093CA02C90108958CE693E021
:100690000E9433039093CE028093CD0208958091FF
:1006A000C9029091CA02891B990B0895CF93DF93D9
:1006B000CB01EA01642F0E94DE02CE01DF91CF91CF
:1006C0000895CF93DF931F92CDB7DEB7698361E0C2
:1006D000CE0101960E94DE0281E090E00F90DF9152
:1006E000CF91089590E080E00895EF92FF920F93EC
:1006F0001F93CF93DF9380931E0260931F0270932A
:1007000020028091B9028111FCCF66E08FEF9FEF4C
:100710000E94CC022DE0209308012AE120930901D8
:10072000CEE1D2E060E0E62E61E0F62E01E212E0DA
:1007300069910E94CC02FE013197E081AE2FB0E0BA
:1007400054E0B595A7955A95E1F7A954BE4F2C9161
:10075000D7011A962C931A97EF70F0E0E954FE4FE8
:1007600020811B962C93B2E0EB0EF11C0C171D0799
:10077000F9F680959095FC0124E0F695E7952A9589
:10078000E1F7EF70FF27E954FE4F2081209310011D
:10079000FC01EF70FF27E954FE4F208120931101E7
:1007A000FC01EF2FFF27E295EF70E954FE4F208107
:1007B00020931201E92FFF27EF70FF27E954FE4F26
:1007C00080818093130184E18093B6021092B70276
:1007D0001092B3021092B80261E08AE00E94160201
:1007E00081E08093B9028091B9028111FCCF69E068
:1007F00070E080E090E0DF91CF911F910F91FF902A
:10080000EF900C949A02FC0101900020E9F73197D7
:10081000AF01481B590BBC018FEC92E00C94B70060
:10082000CF93DF9385ED8093BC008091430290913C
:100830004402A0914502B09146020796A11DB11D48
:1008400023E0B695A795979587952A95D1F720919E
:10085000BC0024FD03C010928B0236C040914302BD
:10086000509144026091450270914602452B462BFF
:10087000472B69F30097A105B10541F025E32A95BF
:10088000F1F700000197A109B109E1CF809142027F
:1008900091E0909341028823B9F0C091B800D091C3
:1008A000BA008091BC008A7B8093BC0060E082E14A
:1008B0000E94160260E083E10E9416020E94050376
:1008C000D093BA00C093B800DF91CF9108951F92E2
:1008D0000F920FB60F9211242F933F934F935F9374
:1008E0006F937F938F939F93AF93BF93EF93FF93F8
:1008F0008FEC92E00E943501FF91EF91BF91AF9193
:100900009F918F917F916F915F914F913F912F9127
:100910000F900FBE0F901F9018951F920F920FB659
:100920000F9211242F938F939F93EF93FF93E09156
:10093000DF02F091E0028081E091E502F091E602B1
:1009400082FD1BC090818091E8028F5F8F732091A0
:10095000E902821741F0E091E802F0E0E153FD4F37
:10096000958F8093E802FF91EF919F918F912F9146
:100970000F900FBE0F901F9018958081F4CF1F929B
:100980000F920FB60F9211242F933F938F939F9343
:10099000AF93BF938091BB029091BC02A091BD0226
:1009A000B091BE023091BA0223E0230F2D3758F5E3
:1009B0000196A11DB11D2093BA028093BB029093B2
:1009C000BC02A093BD02B093BE028091BF02909181
:1009D000C002A091C102B091C2020196A11DB11D39
:1009E0008093BF029093C002A093C102B093C20251
:1009F000BF91AF919F918F913F912F910F900FBE1B
:100A00000F901F90189526E8230F0296A11DB11D87
:100A1000D2CF1F920F920FB60F9211241F932F93D4
:100A20003F934F935F936F937F938F939F93AF9376
:100A3000BF93CF93DF93EF93FF938091B902882305
:100A400019F18091B80291E0980F9093B80281114A
:100A50001BC0C091B7021091A8018091B602C817BF
:100A600068F160E08AE00E94160260E0812F0E9437
:100A700016021092B9028091B4029091B5020196CB
:100A80009093B5028093B4028091B802883010F040
:100A90001092B802FF91EF91DF91CF91BF91AF918A
:100AA0009F918F917F916F915F914F913F912F9186
:100AB0001F910F900FBE0F901F901895EC2FF0E034
:100AC000E050FF4F60812091B302D1E0D20FD0936C
:100AD000B30281E090E001C0880F2A95EAF768230D
:100AE000812F0E941602D630A8F21092B302CF5F77
:100AF000C093B702C9CF1F920F920FB60F92112465
:100B00002F933F934F935F936F937F938F939F9315
:100B1000AF93BF93EF93FF938091B900887F8036A6
:100B200009F44AC0F0F5883209F4A7C018F58031FD
:100B300009F49BC0B8F4882309F4F9C0883009F49B
:100B400094C0FF91EF91BF91AF919F918F917F9151
:100B50006F915F914F913F912F910F900FBE0F902A
:100B60001F901895883109F488C0803251F780931E
:100B70008A0214C0803409F49DC040F48033B9F374
:100B80008833F9F680938A0285ECB0C0803509F489
:100B900085C0883509F496C0883499F60E941004FF
:100BA000D0CF883909F48CC038F5883729F050F453
:100BB000883611F0803729F683E080938B021092FB
:100BC000890257C0883809F47BC0803919F0803811
:100BD00009F0B7CF80918902803208F071C0E091AE
:100BE000890281E08E0F809389028091BB00F0E042
:100BF000E759FD4F80833DC0803B39F0E0F4803AF7
:100C000009F479C0883A09F09CCF84E080938B0284
:100C10001092680210926702E091C502F091C6023C
:100C200009958091670281110FC081E0809367026E
:100C30001092470209C0803C09F4A6CF883C09F411
:100C4000A3CF883B09F07DCFE091680281E08E0F51
:100C500080936802F0E0E95BFD4F80818093BB00E8
:100C6000909168028091670229C08091B0028093C0
:100C7000BB0085EC8093BC0064CF9091AF02809163
:100C8000AE02981758F5E091AF0281E08E0F809385
:100C9000AF02F0E0E257FD4F8081E9CFE091AF0273
:100CA00081E08E0F8093AF028091BB00F0E0E257AD
:100CB000FD4F80839091AF028091AE029817C8F2E9
:100CC00085E8D8CFE091AF0281E08E0F8093AF022C
:100CD0008091BB00F0E0E257FD4F808380918D0250
:100CE00081115CCF81E080938C0284EA8093BC0008
:100CF00010928B0226CF85EC8093BC0010928B0261
:100D000080918902803230F4E0918902F0E0E75965
:100D1000FD4F10826091890270E0E091C302F09172
:100D2000C40289E692E00995109289020ACF1092D6
:100D30008A0234CFEFECF2E01382128288EE93E065
:100D4000A0E0B0E084839583A683B7832BEC31E0E9
:100D50003183208325EC30E03587248724EC30E094
:100D60003787268720EC30E0318B208B21EC30E078
:100D7000338B228B22EC30E0358B248B26EC30E059
:100D8000378B268B118E128E138E148EECE6F3E0C9
:100D90001382128284839583A683B7838DED91E0BD
:100DA000918380830895CF93DF93CDB7DEB7A1976A
:100DB0000FB6F894DEBF0FBECDBF789484B58260C5
:100DC00084BD84B5816084BD85B5826085BD85B5EF
:100DD000816085BD80916E00816080936E0010926D
:100DE00081008091810082608093810080918100E8
:100DF0008160809381008091800081608093800079
:100E00008091B10084608093B1008091B0008160D6
:100E10008093B00080917A00846080937A00809102
:100E20007A00826080937A0080917A00816080935A
:100E30007A0080917A00806880937A001092C100D5
:100E400060E084E00E94440260E083E00E9444028B
:100E500060E082E00E9444021092CA021092C9022D
:100E60001092C8021092C7020E9405038CE890E01D
:100E70009093C6028093C5028DE890E09093C402DF
:100E80008093C30282E18093BA0086E493E090935A
:100E9000CC028093CB02E091DF02F091E00282E08D
:100EA0008083E091DB02F091DC021082E091DD02B0
:100EB000F091DE028FEC80831092E702E091E30272
:100EC000F091E40286E08083E091E102F091E20299
:100ED000808180618083E091E102F091E202808173
:100EE00088608083E091E102F091E2028081806875
:100EF0008083E091E102F091E20280818F7D808326
:100F00008BEE91E00E9403048BEF91E00E940304BA
:100F10008CE08093A8018EE0E9EAF1E0DE01119611
:100F200001900D928A95E1F77E0183E0E80EF11CB5
:100F300011E0412C94E2592E94EF692E712C812CF2
:100F40002AEF922EA12CB12CF701219131917F0132
:100F500050E040E0C301B2010E948008CA01B9011B
:100F6000A50194010E9480082230310541055105F8
:100F700008F09EC01F5F173039F78AE0482E512CC9
:100F8000612C712C00E010E08EEF91E00E940304D0
:100F9000C090CD02D090CE020D2C000CEE08FF08C0
:100FA000F7FE70C06DE28FEC92E00E94570122279D
:100FB0003327A9012C193D094E095F0919A2CE0159
:100FC00081967C01CA01B901A30192010E948008A7
:100FD000605DF70162937F012115310541055105DF
:100FE00089F7E114F10419F0C7010E94030485E1B7
:100FF00092E00E9403048BEF91E00E9403048BEFC8
:1010000091E00E94030484E00E94ED015C0183E012
:101010000E94ED016C0182E00E94ED017C01AA9426
:10102000AB2841F46091CD027091CE0281E090E056
:101030000E947503CA94CD2841F46091CD0270914D
:10104000CE0282E090E00E947503EA94EF2841F41A
:101050006091CD027091CE0283E090E00E94750312
:1010600068EE73E080E090E00E949A02011511059D
:1010700009F48ACF0E942101882309F485CF0E94B8
:10108000000082CFA701960119A2CE0181967C01B2
:10109000CA01B901A30192010E948008605DF701B5
:1010A00062937F01211531054105510589F799CFDB
:1010B000163009F462CF1092800088E0809381009E
:1010C00080918100182B1093810030938900209328
:1010D000880080916F00826080936F0061E0809152
:1010E000A8010E94440260E08BE00E94440261E09B
:1010F0008AE00E94440260E08AE00E9416023DCF2E
:10110000A1E21A2EAA1BBB1BFD010DC0AA1FBB1F0B
:10111000EE1FFF1FA217B307E407F50720F0A21B7D
:10112000B30BE40BF50B661F771F881F991F1A94EA
:1011300069F760957095809590959B01AC01BD0114
:10114000CF010895EE0FFF1F0590F491E02D099453
:10115000F894FFCF2A2A2A2A2A2A382C00000000D5
:10116000000000000000000000000000000000007F
:10117000000000000000000000000000000000006F
:10118000000000000000000000000000000000005F
:10119000000000000000000000000000000000004F
:1011A000000000000000000000000000000000003F
:1011B000000000000000000000000000000000002F
:1011C000000000000000000000000000000000001F
:1011D000000000000000000000000000000000000F
:1011E00000000000000000000000000000000000FF
:1011F0000000000000000000000000000C000001E2
:10120000000800400000010004050D0D0E13151626
:10121000191A1C232526292A2C32340000000057D5
:1012200001B700E400A4011501F30007010000006C
:101230000061035603720323034F03330324035354
:101240006C61766520312052656164696E67000DBE
:101250000A0054656D70657261747572652052651F
:101260006365697665643A20002043656C6369753F
:02127000730009
:107E0000112484B714BE81FFF0D085E080938100F7
:107E100082E08093C00088E18093C10086E0809377
:107E2000C20080E18093C4008EE0C9D0259A86E02C
:107E300020E33CEF91E0309385002093840096BBD3
:107E4000B09BFECF1D9AA8958150A9F7CC24DD24C4
:107E500088248394B5E0AB2EA1E19A2EF3E0BF2EE7
:107E6000A2D0813461F49FD0082FAFD0023811F036
:107E7000013811F484E001C083E08DD089C08234E0
:107E800011F484E103C0853419F485E0A6D080C0E4
:107E9000853579F488D0E82EFF2485D0082F10E0AE
:107EA000102F00270E291F29000F111F8ED06801E7
:107EB0006FC0863521F484E090D080E0DECF843638
:107EC00009F040C070D06FD0082F6DD080E0C81688
:107ED00080E7D80618F4F601B7BEE895C0E0D1E017
:107EE00062D089930C17E1F7F0E0CF16F0E7DF06D8
:107EF00018F0F601B7BEE89568D007B600FCFDCFD4
:107F0000A601A0E0B1E02C9130E011968C91119780
:107F100090E0982F8827822B932B1296FA010C0160
:107F200087BEE89511244E5F5F4FF1E0A038BF0790
:107F300051F7F601A7BEE89507B600FCFDCF97BE46
:107F4000E89526C08437B1F42ED02DD0F82E2BD052
:107F50003CD0F601EF2C8F010F5F1F4F84911BD097
:107F6000EA94F801C1F70894C11CD11CFA94CF0C13
:107F7000D11C0EC0853739F428D08EE10CD085E9AC
:107F80000AD08FE07ACF813511F488E018D01DD067
:107F900080E101D065CF982F8091C00085FFFCCF94
:107FA0009093C60008958091C00087FFFCCF809118
:107FB000C00084FD01C0A8958091C6000895E0E648
:107FC000F0E098E1908380830895EDDF803219F02E
:107FD00088E0F5DFFFCF84E1DECF1F93182FE3DFCA
:107FE0001150E9F7F2DF1F91089580E0E8DFEE27F6
:047FF000FF270994CA
:027FFE00040479
:00000001FF
