:100000000C9462000C948A000C948A000C948A0070
:100010000C948A000C948A000C948A000C948A0038
:100020000C948A000C948A000C948A000C94D802D8
:100030000C948A000C948A000C948A000C948A0018
:100040000C948E020C948A000C945C020C94360280
:100050000C948A000C948A000C948A000C948A00F8
:100060000C948A000C948A000000000023002600F3
:10007000290000000000240027002A0000000000E2
:10008000250028002B0004040404040404040202D4
:100090000202020203030303030301020408102007
:1000A0004080010204081020010204081020000012
:1000B0000008000201000003040700000000000027
:1000C0000000FE0511241FBECFEFD8E0DEBFCDBF7C
:1000D00011E0A0E0B1E0ECEBFCE002C005900D9275
:1000E000AC35B107D9F722E0ACE5B1E001C01D9213
:1000F000AC3BB207E1F710E0C2E6D0E004C02197C4
:10010000FE010E944D06C136D107C9F70E941304B3
:100110000C945C060C940000AF92BF92CF92DF92D9
:10012000EF92FF920F931F93CF93DF936C017B01AC
:100130008B01040F151FEB015E01AE18BF08C0173D
:10014000D10759F06991D601ED91FC910190F081B0
:10015000E02DC6010995892B79F7C501DF91CF9173
:100160001F910F91FF90EF90DF90CF90BF90AF90D5
:100170000895FC01538D448D252F30E0842F90E0AD
:10018000821B930B541710F0CF9608950197089592
:10019000FC01918D828D981761F0A28DAE0FBF2F5B
:1001A000B11D5D968C91928D9F5F9F73928F90E0B1
:1001B00008958FEF9FEF0895FC01918D828D981720
:1001C00031F0828DE80FF11D858D90E008958FEF5D
:1001D0009FEF0895FC01918D228D892F90E0805C26
:1001E0009F4F821B91098F73992708958FE192E0A9
:1001F0000E94EA0021E0892B09F420E0822F089573
:1002000080E090E0892B29F00E94F60081110C9487
:1002100000000895FC01A48DA80FB92FB11DA35AA9
:10022000BF4F2C91848D90E001968F739927848F16
:10023000A689B7892C93A089B1898C918370806439
:100240008C93938D848D981306C00288F389E02DDA
:1002500080818F7D80830895EF92FF920F931F938B
:10026000CF93DF93EC0181E0888F9B8D8C8D981369
:100270001AC0E889F989808185FF15C09FB7F89475
:10028000EE89FF896083E889F989808183708064C1
:1002900080839FBF81E090E0DF91CF911F910F910C
:1002A000FF90EF900895F62E0B8D10E00F5F1F4F1B
:1002B0000F731127E02E8C8D8E110CC00FB607FC2A
:1002C000FACFE889F989808185FFF5CFCE010E94B8
:1002D0000A01F1CFEB8DEC0FFD2FF11DE35AFF4F1B
:1002E000F0829FB7F8940B8FEA89FB898081806246
:1002F000CFCFCF93DF93EC01888D8823B9F0AA8903
:10030000BB89E889F9898C9185FD03C0808186FDD0
:100310000DC00FB607FCF7CF8C9185FFF2CF80811F
:1003200085FFEDCFCE010E940A01E9CFDF91CF9189
:100330000895833081F028F4813099F08230A9F05B
:1003400008958730A9F08830C9F08430B1F48091E5
:1003500080008F7D03C0809180008F778093800024
:10036000089584B58F7784BD089584B58F7DFBCFC4
:100370008091B0008F778093B00008958091B00095
:100380008F7DF9CF1F93CF93DF93282F30E0F901B2
:10039000E255FF4F8491F901E656FF4FD491F901E0
:1003A000EA57FF4FC491CC23A9F0162F81110E9468
:1003B0009901EC2FF0E0EE0FFF1FE458FF4FA591DD
:1003C000B4918FB7F894EC91111108C0D095DE2349
:1003D000DC938FBFDF91CF911F910895DE2BF8CF73
:1003E000CF93DF9390E0FC01E656FF4F24918A57AC
:1003F0009F4FFC0184918823D1F090E0880F991FD2
:10040000FC01EE58FF4FA591B491FC01E458FF4F59
:10041000C591D49161110EC09FB7F8948C91E22FD1
:10042000E0958E238C932881E223E8839FBFDF91A0
:10043000CF9108958FB7F894EC91E22BEC938FBF96
:10044000F6CFE7ECF1E01082118212821092CA011D
:100450000895FC0101900020E9F73197AF01481B96
:10046000590BBC018FE192E00C948C001F920F920B
:100470000FB60F9211242F933F934F935F936F9377
:100480007F938F939F93AF93BF93EF93FF938FE1EE
:1004900092E00E940A01FF91EF91BF91AF919F916D
:1004A0008F917F916F915F914F913F912F910F901D
:1004B0000FBE0F901F9018951F920F920FB60F92BC
:1004C00011242F938F939F93EF93FF93E0912F022B
:1004D000F09130028081E0913502F091360282FD88
:1004E0001BC09081809138028F5F8F7320913902F9
:1004F000821741F0E0913802F0E0E15EFD4F958F08
:1005000080933802FF91EF919F918F912F910F90DF
:100510000FBE0F901F9018958081F4CF1F920F92FD
:100520000FB60F9211242F933F938F939F93AF9306
:10053000BF938091C3019091C401A091C501B09176
:10054000C60130916E0123E0230F2D3758F5019637
:10055000A11DB11D20936E018093C3019093C4012E
:10056000A093C501B093C60180916A0190916B017F
:10057000A0916C01B0916D010196A11DB11D8093F8
:100580006A0190936B01A0936C01B0936D01BF91D0
:10059000AF919F918F913F912F910F900FBE0F9030
:1005A0001F90189526E8230F0296A11DB11DD2CFEA
:1005B0001F920F920FB60F9211241F932F933F9308
:1005C0004F935F936F937F938F939F93AF93BF935B
:1005D000CF93DF93EF93FF9310917001112339F1C3
:1005E00080916901811123C02091000130E0F9015F
:1005F000E255FF4F8491F901E656FF4FD491F9017E
:10060000EA57FF4FC491CC2379F081110E949901E0
:10061000EC2FF0E0EE0FFF1FE859FF4FA591B491CA
:10062000EC91DE2381E009F480E080936801809101
:1006300069018823D9F08091670191E0980F909328
:100640006701811113C060E08AE00E94C20160E08E
:100650008CE00E94C2011092690180916501909125
:100660006601019690936601809365018091670110
:10067000883010F010926701112309F492C0809124
:10068000690181118EC090916801992329F08091B0
:1006900064018F5F80936401809162012091630106
:1006A000921709F44AC02BE0803508F02DE1820F43
:1006B000809362019093630120916201203A08F4D3
:1006C00070C080916001909161019695879590939B
:1006D00061018093600130916401353028F09860A9
:1006E0009093610180936001205A209362011092DF
:1006F000640180916F01882309F484C080915F01B7
:100700008F5F80935F018C3008F44BC08091600153
:1007100090916101382F3F73232F269526952870DD
:1007200048E0420F421769F0E22FF0E0E05FFE4F31
:100730005081351739F02F5FF5CF8C5E80936201C1
:10074000BBCF20E040E1249F9001112436E0969534
:1007500087953A95E1F7482F9595879595958795D3
:10076000887098E0980F981749F0E82FF0E0E05F64
:10077000FE4F5081451719F08F5FF5CF80E0822B37
:100780009091C101911121C080935E019CEF980F5F
:100790009D34D8F010926F0180915D018F5F80933E
:1007A0005D01FF91EF91DF91CF91BF91AF919F914B
:1007B0008F917F916F915F914F913F912F911F91F9
:1007C0000F900FBE0F901F901895E091C10191E01E
:1007D0009E0F9093C101F0E0EF58FE4F80839091FF
:1007E000C10180915E01981750F010926F018091C5
:1007F0005C018F5F80935C0181E08093C201109265
:100800005F01CFCF809160019091610188339B405F
:1008100041F681E080936F0110925F011092C10157
:100820001092C201BECFCF93DF93CDB7DEB7A397AF
:100830000FB6F894DEBF0FBECDBF789484B582604A
:1008400084BD84B5816084BD85B5826085BD85B574
:10085000816085BD80916E00816080936E001092F2
:10086000810080918100826080938100809181006D
:1008700081608093810080918000816080938000FE
:100880008091B10084608093B1008091B00081605C
:100890008093B00080917A00846080937A00809188
:1008A0007A00826080937A0080917A0081608093E0
:1008B0007A0080917A00806880937A001092C1005B
:1008C000E0912F02F091300282E08083E0912B02D0
:1008D000F0912C021082E0912D02F0912E028FEC0B
:1008E000808310923702E0913302F091340286E067
:1008F0008083E0913102F0913202808180618083B7
:10090000E0913102F0913202808188608083E09131
:100910003102F0913202808180688083E09131025F
:10092000F091320280818F7D808382E391E00E948A
:10093000290285E491E00E9429028CE08093000165
:100940008EE0E2E0F1E0DE01119601900D928A95D1
:10095000E1F77E0123E0E20EF11C11E0812C94E22C
:10096000992E94EFA92EB12C412C2AEF522E612CF6
:10097000712CF701219131917F0150E040E0C501D8
:10098000B4010E942B06CA01B901A30192010E9481
:100990002B06223031054105510508F007C11F5FC4
:1009A000173039F780917001811105C081E0809383
:1009B000700110926F018AE0882E912CA12CB12C2D
:1009C00000E010E08091C201882309F459C08091B1
:1009D000C101835090910101891710F480930101A6
:1009E0004091010150E062E771E08FEC91E00E94DC
:1009F00053061092C2012091C101E1E7F1E08FEFAF
:100A00009FEF215098F031918327082E8295807FA7
:100A10008025092E982F82958F7008268695982715
:100A20008927880F880F880F8025EBCF883B904F50
:100A300039F52FB7F8948091C3019091C401A0912A
:100A4000C501B091C6012FBF8093CB019093CC011B
:100A5000A093CD01B093CE018091CA019091010184
:100A6000292F30E0E82FF0E0AF01420F531FE95388
:100A7000FE4FAFECB1E0443051057CF10E94210201
:100A80008091CA018823E9F08091CB019091CC013B
:100A9000A091CD01B091CE010496A11DB11D2FB73B
:100AA000F8944091C3015091C4016091C5017091C7
:100AB000C6012FBF84179507A607B70710F40E9439
:100AC00021020115110509F47DCF0E94F60088234B
:100AD00009F478CF0E94000075CFAD014F5C514002
:100AE000421753071CF44D914193F7CF890F809320
:100AF000CA01833029F68091C701833009F0BECF47
:100B00008091C8018AA38091C9018BA388E491E0F8
:100B10000E942902CAA0DBA00D2C000CEE08FF08E1
:100B2000F7FE2EC06DE28FE192E00E942C01222799
:100B30003327A9012C193D094E095F0919A2CE01DD
:100B400081967C01CA01B901A50194010E942B067E
:100B5000605DF70162937F01211531054105510563
:100B600089F7E114F10419F0C7010E94290283E515
:100B700091E00E94290285E491E00E9429027ECF43
:100B8000A701960119A2CE0181967C01CA01B90183
:100B9000A50194010E942B06605DF70162937F011D
:100BA000211531054105510589F7DBCF163009F4D0
:100BB000F9CE1092800088E08093810080918100BE
:100BC000182B109381003093890020938800809126
:100BD0006F00826080936F0061E08CE00E94F00102
:100BE00060E0809100010E94F00161E08AE00E94D3
:100BF000F00160E08AE00E94C201D4CEEFE1F2E0B1
:100C00001382128288EE93E0A0E0B0E084839583A3
:100C1000A683B78384E291E09183808385EC90E0A2
:100C20009587848784EC90E09787868780EC90E0B6
:100C3000918B808B81EC90E0938B828B82EC90E0A7
:100C4000958B848B86EC90E0978B868B118E128E21
:100C5000138E148E0895A1E21A2EAA1BBB1BFD0150
:100C60000DC0AA1FBB1FEE1FFF1FA217B307E4078B
:100C7000F50720F0A21BB30BE40BF50B661F771FE3
:100C8000881F991F1A9469F76095709580959095C3
:100C90009B01AC01BD01CF010895EE0FFF1F059030
:100CA000F491E02D0994FB01DC0102C001900D924A
:0C0CB00041505040D8F70895F894FFCF51
:100CBC000B50000001000800400000010004050D6D
:100CCC000D0E131516191A1C232526292A2C32341D
:100CDC00000000002C018C00B9007901EA00C8006A
:100CEC00DC0052656365697665722043205265614C
:100CFC0064696E67000D0A00526563656976656408
:0C0D0C003A20002043656C636975730099
:00000001FF
