:100000000C9462000C948A000C948A000C948A0070
:100010000C948A000C948A000C948A000C948A0038
:100020000C948A000C948A000C948A000C94C505E8
:100030000C948A000C948A000C948A000C948A0018
:100040000C947B050C948A000C9449050C942305B0
:100050000C948A000C948A000C948A000C948A00F8
:100060000C940C060C948A00000000002400270069
:100070002A0000000000250028002B0000000008D6
:10008000000201000003040700000000000000005F
:1000900000000000230026002900040404040404D6
:1000A0000404020202020202030303030303010227
:1000B00004081020408001020408102001020408F6
:1000C0001020700711241FBECFEFD8E0DEBFCDBFD8
:1000D00011E0A0E0B1E0E4E4F6E102C005900D9289
:1000E000A837B107D9F722E0A8E7B1E001C01D9217
:1000F000A73FB207E1F710E0C2E6D0E004C02197C5
:10010000FE010E941A0BC136D107C9F70E94A90748
:100110000C94200B0C94000008950895AF92BF92A8
:10012000CF92DF92EF92FF920F931F93CF93DF93C3
:100130006C017B018B01040F151FEB015E01AE18F2
:10014000BF08C017D10759F06991D601ED91FC9114
:100150000190F081E02DC6010995892B79F7C50141
:10016000DF91CF911F910F91FF90EF90DF90CF9093
:10017000BF90AF900895FC01538D448D252F30E042
:10018000842F90E0821B930B541710F0CF960895A4
:1001900001970895FC01918D828D981761F0A28DD1
:1001A000AE0FBF2FB11D5D968C91928D9F5F9F7397
:1001B000928F90E008958FEF9FEF0895FC01918D4D
:1001C000828D981731F0828DE80FF11D858D90E0BA
:1001D00008958FEF9FEF0895FC01918D228D892F57
:1001E00090E0805C9F4F821B91098F73992708953F
:1001F0008EE492E00E94EC0021E0892B09F420E0DB
:10020000822F089580E090E0892B29F00E94F80069
:1002100081110C9400000895FC01A48DA80FB92F42
:10022000B11DA35ABF4F2C91848D90E001968F731E
:100230009927848FA689B7892C93A089B1898C913D
:10024000837080648C93938D848D981306C002888C
:10025000F389E02D80818F7D80830895EF92FF9256
:100260000F931F93CF93DF93EC0181E0888F9B8DD9
:100270008C8D98131AC0E889F989808185FF15C093
:100280009FB7F894EE89FF896083E889F9898081B6
:100290008370806480839FBF81E090E0DF91CF9185
:1002A0001F910F91FF90EF900895F62E0B8D10E0A7
:1002B0000F5F1F4F0F731127E02E8C8D8E110CC016
:1002C0000FB607FCFACFE889F989808185FFF5CF61
:1002D000CE010E940C01F1CFEB8DEC0FFD2FF11D33
:1002E000E35AFF4FF0829FB7F8940B8FEA89FB899E
:1002F00080818062CFCFCF93DF93EC01888D8823FC
:10030000B9F0AA89BB89E889F9898C9185FD03C078
:10031000808186FD0DC00FB607FCF7CF8C9185FF5D
:10032000F2CF808185FFEDCFCE010E940C01E9CF95
:10033000DF91CF910895833081F028F4813099F0D6
:100340008230A9F008958730A9F08830C9F0843050
:10035000B1F4809180008F7D03C0809180008F7701
:1003600080938000089584B58F7784BD089584B507
:100370008F7DFBCF8091B0008F778093B000089580
:100380008091B0008F7DF9CFCF93DF93282F30E09D
:10039000F901E458FF4F8491F901E255FF4FD491E0
:1003A000F901E656FF4FC491CC23A1F081110E94C0
:1003B0009B01EC2FF0E0EE0FFF1FE057FF4FA591E0
:1003C000B491EC91ED2381E090E009F480E0DF91BD
:1003D000CF91089580E090E0FACF1F93CF93DF9301
:1003E000282F30E0F901E458FF4F8491F901E255DC
:1003F000FF4FD491F901E656FF4FC491CC23A9F0E9
:10040000162F81110E949B01EC2FF0E0EE0FFF1FD1
:10041000EE58FF4FA591B4918FB7F894EC9111115C
:1004200008C0D095DE23DC938FBFDF91CF911F9161
:100430000895DE2BF8CFCF93DF9390E0FC01E255D7
:10044000FF4F249186569F4FFC0184918823D1F061
:1004500090E0880F991FFC01E859FF4FA591B491D6
:10046000FC01EE58FF4FC591D49161110EC09FB7AA
:10047000F8948C91E22FE0958E238C932881E223CF
:10048000E8839FBFDF91CF9108958FB7F894EC91E7
:10049000E22BEC938FBFF6CF3FB7F8948091E70142
:1004A0009091E801A091E901B091EA0126B5A89BDD
:1004B00005C02F3F19F00196A11DB11D3FBFBA2FF6
:1004C000A92F982F8827BC01CD01620F711D811DB6
:1004D000911D42E0660F771F881F991F4A95D1F73B
:1004E00008958F929F92AF92BF92CF92DF92EF9238
:1004F000FF924B015C010E944C026B017C010E9447
:100500004C026C197D098E099F09683E7340810574
:100510009105A8F321E0821A9108A108B10888EE9C
:10052000C80E83E0D81EE11CF11C81149104A104C3
:10053000B10429F7FF90EF90DF90CF90BF90AF907C
:100540009F908F9008952091B901260F3327331F74
:1005500021323105ECF420912402FC0190E080E08E
:10056000243069F082E00895A091B9012191AC0195
:1005700047565E4FA40FB52FB11D2C9301968617D9
:1005800098F38091B901680F6093B90180E00895F4
:1005900081E008951092240281E08093230210925A
:1005A000FE0161E082E10E94ED0161E083E10E94D1
:1005B000ED01E9EBF0E080818E7F808380818D7F8B
:1005C000808388E48093B80085E48093BC0008951C
:1005D000CF93DF9391E0909398018823B9F0C09175
:1005E000B800D091BA008091BC008A7B8093BC0097
:1005F00060E082E10E94ED0160E083E10E94ED0194
:100600000E94CA02D093BA00C093B800DF91CF9184
:100610000895CF92DF92EF92FF920F931F93CF93A3
:10062000DF93D0914D0281E0D13208F09CC0C0919F
:100630004C020E944C026B017C01809124028111CA
:100640006CC082E08093240281E0809323028FEFCC
:100650008093220210922102D0932002ACE2B2E0F9
:10066000E0E0F2E080E0D8138DC01092FF018091AD
:10067000FF01CC0FC82BC093FF018091FE01813098
:1006800009F084C01092FE010E944C026B017C01B3
:100690008091FF018093BB008091260290912702F8
:1006A000A0912802B0912902892B8A2B8B2BA1F0D3
:1006B0000E944C02009126021091270220912802EC
:1006C000309129026C197D098E099F0906171707B9
:1006D0002807390708F442C08091BC0083FDD8CFB9
:1006E00085EC8093BC000E944C026B017C018091E0
:1006F0002402823009F44CC0809122028F3F09F419
:1007000069C080912202803209F466C08091220281
:10071000803309F463C084E026C080912602909162
:100720002702A0912802B0912902892B8A2B8B2BBA
:1007300009F483CF0E944C020091260210912702F7
:1007400020912802309129026C197D098E099F0998
:10075000061717072807390708F06FCF8091250281
:100760000E94E80285E010922B0210924D02109236
:100770002A02DF91CF911F910F91FF90EF90DF90B0
:10078000CF9008959D9191938F5F6DCF85EEA9CF06
:100790008091260290912702A0912802B09129020F
:1007A000892B8A2B8B2B09F4A2CF0E944C0200913B
:1007B00026021091270220912802309129026C19FB
:1007C0007D098E099F09061717072807390708F0C2
:1007D0008ECFC4CF80E0C7CF82E0C5CF83E0C3CF48
:1007E0000895E091F0018091EF01E81730F4F0E016
:1007F000E858FE4F808190E008958FEF9FEF0895B5
:100800009091F0018091EF012FEF3FEF981748F49E
:10081000E92FF0E0E858FE4F208130E09F5F909391
:10082000F001C90108958091EF019091F001891BB9
:10083000990B0895CF92DF92EF92FF920F931F933F
:10084000CF93DF937C01CB018A0120912A022223DE
:1008500089F0EB016B01C40ED51ECC15DD0569F0E6
:100860006991D701ED91FC910190F081E02DC701D4
:100870000995F3CF642F0E94A302C801DF91CF91A5
:100880001F910F91FF90EF90DF90CF900895CF933D
:10089000DF931F92CDB7DEB7698320912A0222230E
:1008A000F9F020914D02203258F021E030E0FC01B7
:1008B0003383228390E080E00F90DF91CF91089501
:1008C00080912B02E82FF0E0E45DFD4F9981908349
:1008D0008F5F80932B0280934D0281E090E0ECCFFC
:1008E00061E0CE0101960E94A302F7CF90E080E084
:1008F0000895FC0101900020E9F73197AF01481BF2
:10090000590BBC018EE492E00C948E008F929F9262
:10091000AF92BF920F931F93CF93DF93CDB7DEB704
:10092000A1970FB6F894DEBF0FBECDBF19A242301B
:1009300008F44AE08E010F5D1F4F842E912CB12CDC
:10094000A12CA50194010E94C209E62FB901CA0198
:10095000EA30F4F4E05DD801EE938D01232B242BD3
:10096000252B79F790E080E0109719F0CD010E94D7
:100970007904A1960FB6F894DEBF0FBECDBFDF910C
:10098000CF911F910F91BF90AF909F908F9008953E
:10099000E95CE1CFCF92DF92EF92FF92CF93DF93AA
:1009A0006B017C016DE28EE492E00E942E01EC016D
:1009B00066277727CB016C197D098E099F094AE0CC
:1009C0000E9486048C0F9D1FDF91CF91FF90EF90C6
:1009D000DF90CF90089585ED8093BC008091260232
:1009E00090912702A0912802B09129020796A11D9B
:1009F000B11D23E0B695A795979587952A95D1F7D0
:100A00002091BC0024FD03C010922402089540915F
:100A10002602509127026091280270912902452BED
:100A2000462B472B69F30097A105B10541F025E35B
:100A30002A95F1F700000197A109B109E1CF809152
:100A400025020C94E8021F920F920FB60F92112408
:100A50002F933F934F935F936F937F938F939F93C6
:100A6000AF93BF93EF93FF938EE492E00E940C014B
:100A7000FF91EF91BF91AF919F918F917F916F9176
:100A80005F914F913F912F910F900FBE0F901F904C
:100A900018951F920F920FB60F9211242F938F93D8
:100AA0009F93EF93FF93E0915E02F0915F0280814C
:100AB000E0916402F091650282FD1BC090818091FB
:100AC00067028F5F8F7320916802821741F0E09177
:100AD0006702F0E0E25BFD4F958F80936702FF9124
:100AE000EF919F918F912F910F900FBE0F901F90BC
:100AF00018958081F4CF1F920F920FB60F92112498
:100B00002F933F938F939F93AF93BF938091E30174
:100B10009091E401A091E501B091E6013091E201EC
:100B200023E0230F2D3758F50196A11DB11D209309
:100B3000E2018093E3019093E401A093E501B09377
:100B4000E6018091E7019091E801A091E901B0915F
:100B5000EA010196A11DB11D8093E7019093E80180
:100B6000A093E901B093EA01BF91AF919F918F915A
:100B70003F912F910F900FBE0F901F90189526E870
:100B8000230F0296A11DB11DD2CF1F920F920FB657
:100B90000F9211242F933F934F935F936F937F9303
:100BA0008F939F93AF93BF93EF93FF938091E10156
:100BB0008823D9F08091E00191E0980F9093E001B3
:100BC000811113C060E08AE00E94ED0160E08CE0DA
:100BD0000E94ED011092E1018091DE019091DF0110
:100BE00001969093DF018093DE018091E0018830CF
:100BF00010F01092E001FF91EF91BF91AF919F91A2
:100C00008F917F916F915F914F913F912F910F90B5
:100C10000FBE0F901F9018951F920F920FB60F9254
:100C200011242F933F934F935F936F937F938F93F1
:100C30009F93AF93BF93EF93FF938091B900887F09
:100C4000803609F44AC0F0F5883209F4A7C018F5D7
:100C5000803109F49BC0B8F4882309F4F9C08830C6
:100C600009F494C0FF91EF91BF91AF919F918F9143
:100C70007F916F915F914F913F912F910F900FBE98
:100C80000F901F901895883109F488C0803251F771
:100C90008093220214C0803409F49DC040F4803354
:100CA000B9F38833F9F68093220285ECB0C0803521
:100CB00009F485C0883509F496C0883499F60E94F5
:100CC000EB04D0CF883909F48CC038F5883729F087
:100CD00050F4883611F0803729F683E0809324029F
:100CE0001092DB0157C0883809F47BC0803919F0B5
:100CF000803809F0B7CF8091DB01803208F071C0F5
:100D0000E091DB0181E08E0F8093DB018091BB00DD
:100D1000F0E0E554FE4F80833DC0803B39F0E0F4C5
:100D2000803A09F479C0883A09F09CCF84E0809336
:100D300024021092BA011092B901E091ED01F091F4
:100D4000EE0109958091B90181110FC081E0809376
:100D5000B9011092990109C0803C09F4A6CF883CE2
:100D600009F4A3CF883B09F07DCFE091BA0181E07F
:100D70008E0F8093BA01F0E0E756FE4F808180939A
:100D8000BB009091BA018091B90129C08091FF0107
:100D90008093BB0085EC8093BC0064CF90912102CE
:100DA00080912002981758F5E091210281E08E0F82
:100DB00080932102F0E0E050FE4F8081E9CFE09186
:100DC000210281E08E0F809321028091BB00F0E030
:100DD000E050FE4F8083909121028091200298176D
:100DE000C8F285E8D8CFE091210281E08E0F809390
:100DF00021028091BB00F0E0E050FE4F80838091A3
:100E0000230281115CCF81E08093FE0184EA80930C
:100E1000BC001092240226CF85EC8093BC00109277
:100E200024028091DB01803230F4E091DB01F0E0BC
:100E3000E554FE4F10826091DB0170E0E091EB0120
:100E4000F091EC018BEB91E009951092DB010ACF58
:100E50001092220234CFCF92DF92EF92FF920F9343
:100E60001F93E82FF92F05C00150110921093109FD
:100E700061F1908196239417B9F305C001501109CF
:100E80002109310911F1908196239413F7CFC12CD8
:100E9000D12CE12CF12C0AC08FEFC81AD80AE80A2D
:100EA000F80A0C151D052E053F0579F08081862373
:100EB000841791F36C2D7D2D8E2D9F2D1F910F91F9
:100EC000FF90EF90DF90CF90089560E070E080E0B9
:100ED00090E01F910F91FF90EF90DF90CF900895D9
:100EE000EEE4F2E01382128288EE93E0A0E0B0E03C
:100EF00084839583A683B78324E031E03183208304
:100F000025EC30E03587248724EC30E037872687CE
:100F100020EC30E0318B208B21EC30E0338B228BC6
:100F200022EC30E0358B248B26EC30E0378B268B9F
:100F3000118E128E138E148EEBEEF2E0138212825B
:100F400084839583A683B78386E191E09183808330
:100F50000895789484B5826084BD84B5816084BD31
:100F600085B5826085BD85B5816085BD80916E0047
:100F7000816080936E001092810080918100826078
:100F800080938100809181008160809381008091B5
:100F900080008160809380008091B10084608093A4
:100FA000B1008091B00081608093B00080917A00A0
:100FB000846080937A0080917A00826080937A00C6
:100FC00080917A00816080937A0080917A008068B5
:100FD00080937A001092C100E0915E02F0915F026E
:100FE00082E08083E0915A02F0915B021082E091EE
:100FF0005C02F0915D028FEC808310926602E091BA
:101000006202F091630286E08083E0916002F091D9
:101010006102808180618083E0916002F0916102D1
:10102000808188608083E0916002F091610280811C
:1010300080688083E0916002F091610280818F7D01
:10104000808361E083E00E941B0260E082E00E94F6
:101050001B0284E291E00E9479048CE391E00E94FB
:1010600079041092F0011092EF0110922B0210926D
:101070004D020E94CA028CE890E09093EE018093AA
:10108000ED018DE890E09093EC018093EB0133E06B
:10109000832E912C22242394312C60E083E00E9443
:1010A000ED01C4010197F1F761E083E00E94ED01D9
:1010B00083E290E00197F1F760E083E00E94ED01A8
:1010C000E0EBF0E06491ECE9F0E08491E82FF0E0EF
:1010D000EE0FFF1FE057FF4F8591949100E412E45B
:1010E0002FE030E0462F0E942B0761157105810526
:1010F000910529F06F5F7F4F8F4F9F4F9F7024E9BD
:1011000030E040E050E00E94A309CA01B9010E940A
:101110008E0A21EE3AE74DE152E40E94E4090E9472
:10112000560A6B017C018FE391E00E947904F7FE7F
:1011300091C0C701B6010E94CA0482E591E00E94F5
:1011400079048CE391E00E9479041092F9011092E5
:10115000FA011092FB011092FC011092FD0161E076
:101160008DE00E941B0260E08DE00E94ED0164E1D1
:1011700070E080E090E00E94710261E08DE00E94EA
:10118000ED018BE990E00197F1F760E08DE00E94BE
:101190001B02C1E1D7E28DE00E94C401892B09F056
:1011A0005FC02197C1F76091F5017091F6018091C0
:1011B000F7019091F8010E94560A2B018AE591E00F
:1011C0000E947904B201550C880B990B97FFB7C0A8
:1011D0000E94CA0480E791E00E9479048CE391E0C8
:1011E0000E9479048CE391E00E947904C1E0C093ED
:1011F0002A0299E090934C0210922B0210924D0219
:10120000642D8BEE92E00E9447040E940903C09374
:101210002A02ECE0E0934C0210922B0210924D0255
:101220006C2D8BEE92E00E9447040E94090368EE49
:1012300073E080E090E00E94710280E090E0892BF2
:1012400009F42BCF0E94F800882309F426CF0E94CE
:10125000000023CF4AE0C701B6010E9486046DCF8B
:10126000C1E1D7E28DE00E94C401019719F42197F2
:10127000C9F799CF08E210E0C7E0D0E091E1A92ECC
:1012800097E2B92E8DE00E94C401892B29F4F1E088
:10129000AF1AB108B9F787CF0E944C022B013C016D
:1012A00081E1A82E87E2B82E8DE00E94C40101974B
:1012B00029F481E0A81AB108B9F775CF0E944C0251
:1012C00064197509860997096932710581059105C7
:1012D00068F0ED2FF0E0EF50FE4F2085C1010C2E9D
:1012E00001C0880F0A94EAF7822B8087C11125C0BC
:1012F000DF5FC7E00150110909F0C0CF6091F9012B
:1013000070E090E080E00E948C0A6093F10170939D
:10131000F2018093F3019093F4016091FB0170E07E
:1013200090E080E00E948C0A6093F5017093F601D2
:101330008093F7019093F80136CFC150DBCF4AE09C
:101340000E94860447CF052E97FB1EF400940E944E
:10135000BA0957FD07D00E94C20907FC03D04EF41A
:101360000C94BA0950954095309521953F4F4F4FB9
:101370005F4F089590958095709561957F4F8F4F41
:101380009F4F0895A1E21A2EAA1BBB1BFD010DC0A1
:10139000AA1FBB1FEE1FFF1FA217B307E407F50725
:1013A00020F0A21BB30BE40BF50B661F771F881F01
:1013B000991F1A9469F760957095809590959B0197
:1013C000AC01BD01CF0108950E94F8090C94E00A18
:1013D0000E94D90A58F00E94D20A40F029F45F3FD7
:1013E00029F00C94C90A51110C94140B0C94CF0AD7
:1013F0000E94F10A68F39923B1F3552391F3951BE9
:10140000550BBB27AA2762177307840738F09F5F25
:101410005F4F220F331F441FAA1FA9F335D00E2E92
:101420003AF0E0E832D091505040E695001CCAF7FF
:101430002BD0FE2F29D0660F771F881FBB1F2617C2
:1014400037074807AB07B0E809F0BB0B802DBF0199
:10145000FF2793585F4F3AF09E3F510578F00C9468
:10146000C90A0C94140B5F3FE4F3983ED4F38695BD
:1014700077956795B795F7959F5FC9F7880F911D89
:101480009695879597F90895E1E0660F771F881F75
:10149000BB1F621773078407BA0720F0621B730B28
:1014A000840BBA0BEE1F88F7E09508950E945D0A41
:1014B0006894B1110C94140B08950E94F90A88F0F5
:1014C0009F5798F0B92F9927B751B0F0E1F0660F08
:1014D000771F881F991F1AF0BA95C9F714C0B13049
:1014E00091F00E94130BB1E008950C94130B672F39
:1014F000782F8827B85F39F0B93FCCF38695779578
:101500006795B395D9F73EF4909580957095619560
:101510007F4F8F4F9F4F0895E89409C097FB3EF48B
:1015200090958095709561957F4F8F4F9F4F992330
:10153000A9F0F92F96E9BB279395F69587957795AE
:101540006795B795F111F8CFFAF4BB0F11F460FF6E
:101550001BC06F5F7F4F8F4F9F4F16C0882311F0C6
:1015600096E911C0772321F09EE8872F762F05C0DA
:10157000662371F096E8862F70E060E02AF09A9575
:10158000660F771F881FDAF7880F9695879597F96A
:10159000089597F99F6780E870E060E008959FEFF5
:1015A00080EC089500240A941616170618060906FA
:1015B000089500240A9412161306140605060895C9
:1015C000092E0394000C11F4882352F0BB0F40F451
:1015D000BF2B11F460FF04C06F5F7F4F8F4F9F4F91
:1015E000089557FD9058440F551F59F05F3F71F013
:1015F0004795880F97FB991F61F09F3F79F087957A
:101600000895121613061406551FF2CF4695F1DF02
:1016100008C0161617061806991FF1CF8695710592
:10162000610508940895E894BB2766277727CB01C6
:1016300097F90895EE0FFF1F0590F491E02D09949E
:04164000F894FFCF4C
:10164400000000002E018E00BB007B01EC00CA00EC
:10165400DE000000000047041A047604F0031304BB
:101664000004F1032A2A2A2A4D4153544552204D9D
:101674006F6E69746F722A2A2A2A2A000D0A00449E
:10168400697374616E6365204D6561737572653A43
:101694002000204D65746572200054656D7065727C
:1016A4006174757265204D6561737572653A2000C9
:0816B40043656C636975730066
:00000001FF
